:03000000020BA050
:0C0BA000787FE4F6D8FD758162020A2C13
:100AB80074656D703A0063006469676974616C20DD
:100AC800746865726D6F6D657465722062792061F6
:100AD8006264756C207265686D616E20616E642059
:0E0AE800616264756C6C6168202D20646C6422
:080AF600C2A6D2A77F057E0015
:100AFE00D3EF9400EE940040147DFA7C00ED1D704F
:0D0B0E00011CED4C70F7EF1F70E61E80E338
:010B1B0022B7
:0A0BAC008F90C2A5120AF6C2A7221C
:0F0B8700E5438485F04375F00AE543842430FF8D
:0A0B96008F90D2A5120AF6C2A72222
:100B4100E4FBFAD2A4C2A37F0AFE120AFED2A320BA
:100B5100A2FDC2A4D2A27F0A7E00120AFEAF80AB20
:030B6100077E000C
:010B6400226E
:100B1C008B608A618962AB60AA61A9621208F66077
:100B2C00130562E5627002056114F91208F6FF12F2
:050B3C000B9680E2228F
:100B65008C5E8D5F7F38120BAC7F0C120BAC7F0156
:100B7500120BAC7F80120BAC120B1CAF5FAE5E028A
:020B85000AFE66
:100991008B448A4589468C478D48C3E548940FE5C9
:0E09A100476480948050077DC87C00020B657F
:1009AF00E4F549F54AC3E54A9548E5476480F8E51B
:0609BF00496480985066B7
:1009C50085495A854A5BE4F55CF55DE54A240FFFE8
:1009D500E43549FEC3E55B9FEE6480F8E55A648023
:1009E500985029AB44AA45A946855B82855A83124E
:1009F500090FFF744B255DF8A607055BE55B7002E3
:100A0500055A055DE55D70C3055C80BF7B007A0016
:100A1500794B7DC87C00120B65740B254AF54AE4B9
:040A25003549F54911
:020A29008089C2
:010A2B0022A8
:100A2C0078087C007D007BFF7A0A79C07E007F36D7
:100A3C001208D0E4F53EF53FF540F541FB7A00791C
:100A4C00087D36FC1209917F0A7E00120AFE7F8017
:100A5C00120BAC7580FF7BFF7A0A79B8120B1C7FE6
:100A6C0085120BAC120B418F437E007C037DE81288
:100A7C00093CEF2430FF120B96AF437E007C037DC4
:100A8C00E812093C8D4375F064120B9075F06412FA
:100A9C000B8775F00A120B877542DFAF42120B966B
:0C0AAC007BFF7A0A79BE120B1C020A5371
:10080000E709F608DFFA8046E709F208DFFA803EDA
:1008100088828C83E709F0A3DFFA8032E309F608C7
:10082000DFFA8078E309F208DFFA807088828C832F
:10083000E309F0A3DFFA806489828A83E0A3F608E3
:10084000DFFA805889828A83E0A3F208DFFA804CBD
:1008500080D280FA80C680D4806980F28033801094
:1008600080A680EA809A80A880DA80E280CA8033FD
:1008700089828A83ECFAE493A3C8C582C8CCC58375
:10088000CCF0A3C8C582C8CCC583CCDFE9DEE78045
:100890000D89828A83E493A3F608DFF9ECFAA9F0C4
:1008A000EDFB2289828A83ECFAE0A3C8C582C8CC1A
:1008B000C583CCF0A3C8C582C8CCC583CCDFEADE33
:1008C000E880DB89828A83E493A3F208DFF980CC95
:1008D00088F0EF60010E4E60C388F0ED2402B4048E
:1008E0000050B9F582EB2402B4040050AF23234535
:0608F00082239008507302
:1008F600BB010689828A83E0225002E722BBFE0200
:09090600E32289828A83E4932232
:10090F00BB010CE58229F582E5833AF583E022509D
:10091F0006E92582F8E622BBFE06E92582F8E222E7
:0D092F00E58229F582E5833AF583E4932201
:10093C00BC000BBE0029EF8DF084FFADF022E4CC9F
:10094C00F875F008EF2FFFEE33FEEC33FCEE9DEC68
:10095C00984005FCEE9DFE0FD5F0E9E4CEFD22EDAE
:10096C00F8F5F0EE8420D21CFEADF075F008EF2FF8
:10097C00FFED33FD4007985006D5F0F222C398FDE9
:05098C000FD5F0EA2286
:00000001FF
