:03000000020B9D53
:0C0B9D00787FE4F6D8FD758162020A2919
:100AB50074656D703A0063004469676974616C2000
:100AC500546865726D6F6D65746572204279204159
:100AD5006264756C2D7265686D616E20616E64204F
:0E0AE500416264756C6C6168202D20444C44A5
:080AF300C2A6D2A77F057E0018
:100AFB00D3EF9400EE940040147DFA7C00ED1D7052
:0D0B0B00011CED4C70F7EF1F70E61E80E33B
:010B180022BA
:0A0BA9008F90C2A5120AF3C2A72222
:0F0B8400E5438485F04375F00AE543842430FF90
:0A0B93008F90D2A5120AF3C2A72228
:100B3E00E4FBFAD2A4C2A37F0AFE120AFBD2A320C0
:100B4E00A2FDC2A4D2A27F0A7E00120AFBAF80AB26
:030B5E00077E000F
:010B61002271
:100B19008B608A618962AB60AA61A9621208F6607A
:100B2900130562E5627002056114F91208F6FF12F5
:050B39000B9380E22295
:100B62008C5E8D5F7F38120BA97F0C120BA97F015F
:100B7200120BA97F80120BA9120B19AF5FAE5E0296
:020B82000AFB6C
:100991008B448A4589468C478D48C3E548940FE5C9
:0E09A100476480948050077DC87C00020B6282
:1009AF00E4F549F54AC3E54A9548E5476480F8E51B
:0609BF00496480985063BA
:1009C50085495A854A5BE4F55CF55DE54A240FFFE8
:1009D500E43549FEC3E55B9FEE6480F8E55A648023
:1009E500985029AB44AA45A946855B82855A83124E
:1009F500090FFF744B255DF8A607055BE55B7002E3
:100A0500055A055DE55D70C3055C80BF7B007A0016
:100A1500794B7D327C00120B62054AE54A709005E0
:010A25004987
:020A2600808CC2
:010A280022AB
:100A290078087C007D007BFF7A0A79BD7E007F36DD
:100A39001208D0E4F53EF53FF540F541FB7A00791F
:100A4900087D36FC1209917F0A7E00120AFB7F801D
:100A5900120BA97580FF7BFF7A0A79B5120B197FF2
:100A690085120BA9120B3E8F437E007C037DE81291
:100A7900093CEF2430FF120B93AF437E007C037DCA
:100A8900E812093C8D4375F064120B8D75F0641200
:100A99000B8475F00A120B847542DFAF42120B9377
:0C0AA9007BFF7A0A79BB120B19020A507D
:10080000E709F608DFFA8046E709F208DFFA803EDA
:1008100088828C83E709F0A3DFFA8032E309F608C7
:10082000DFFA8078E309F208DFFA807088828C832F
:10083000E309F0A3DFFA806489828A83E0A3F608E3
:10084000DFFA805889828A83E0A3F208DFFA804CBD
:1008500080D280FA80C680D4806980F28033801094
:1008600080A680EA809A80A880DA80E280CA8033FD
:1008700089828A83ECFAE493A3C8C582C8CCC58375
:10088000CCF0A3C8C582C8CCC583CCDFE9DEE78045
:100890000D89828A83E493A3F608DFF9ECFAA9F0C4
:1008A000EDFB2289828A83ECFAE0A3C8C582C8CC1A
:1008B000C583CCF0A3C8C582C8CCC583CCDFEADE33
:1008C000E880DB89828A83E493A3F208DFF980CC95
:1008D00088F0EF60010E4E60C388F0ED2402B4048E
:1008E0000050B9F582EB2402B4040050AF23234535
:0608F00082239008507302
:1008F600BB010689828A83E0225002E722BBFE0200
:09090600E32289828A83E4932232
:10090F00BB010CE58229F582E5833AF583E022509D
:10091F0006E92582F8E622BBFE06E92582F8E222E7
:0D092F00E58229F582E5833AF583E4932201
:10093C00BC000BBE0029EF8DF084FFADF022E4CC9F
:10094C00F875F008EF2FFFEE33FEEC33FCEE9DEC68
:10095C00984005FCEE9DFE0FD5F0E9E4CEFD22EDAE
:10096C00F8F5F0EE8420D21CFEADF075F008EF2FF8
:10097C00FFED33FD4007985006D5F0F222C398FDE9
:05098C000FD5F0EA2286
:00000001FF
